{
  "_format": "hh-sol-artifact-1",
  "contractName": "Array",
  "sourceName": "contracts/array.sol",
  "abi": [
    {
      "inputs": [],
      "name": "addVoter",
      "outputs": [],
      "stateMutability": "nonpayable",
      "type": "function"
    },
    {
      "inputs": [],
      "name": "didIRegister",
      "outputs": [
        {
          "internalType": "bool",
          "name": "",
          "type": "bool"
        }
      ],
      "stateMutability": "view",
      "type": "function"
    },
    {
      "inputs": [],
      "name": "getTotalVoters",
      "outputs": [
        {
          "internalType": "uint256",
          "name": "",
          "type": "uint256"
        }
      ],
      "stateMutability": "view",
      "type": "function"
    },
    {
      "inputs": [],
      "name": "removeRegistration",
      "outputs": [],
      "stateMutability": "nonpayable",
      "type": "function"
    }
  ],
  "bytecode": "0x608060405234801561001057600080fd5b50610427806100206000396000f3fe608060405234801561001057600080fd5b506004361061004c5760003560e01c80635f9bb8e3146100515780636396d9941461005b578063793cf218146100795780639c04decf14610097575b600080fd5b6100596100a1565b005b610063610106565b604051610070919061032d565b60405180910390f35b6100816101d9565b60405161008e9190610348565b60405180910390f35b61009f6101e5565b005b6000339080600181540180825580915050600190039060005260206000200160009091909190916101000a81548173ffffffffffffffffffffffffffffffffffffffff021916908373ffffffffffffffffffffffffffffffffffffffff160217905550565b600080600090505b6000805490508110156101d05760008181548110610155577f4e487b7100000000000000000000000000000000000000000000000000000000600052603260045260246000fd5b9060005260206000200160009054906101000a900473ffffffffffffffffffffffffffffffffffffffff1673ffffffffffffffffffffffffffffffffffffffff163373ffffffffffffffffffffffffffffffffffffffff1614156101bd5760019150506101d6565b80806101c890610379565b91505061010e565b50600090505b90565b60008080549050905090565b60005b60008054905081101561030c576000818154811061022f577f4e487b7100000000000000000000000000000000000000000000000000000000600052603260045260246000fd5b9060005260206000200160009054906101000a900473ffffffffffffffffffffffffffffffffffffffff1673ffffffffffffffffffffffffffffffffffffffff163373ffffffffffffffffffffffffffffffffffffffff1614156102f957600081815481106102c7577f4e487b7100000000000000000000000000000000000000000000000000000000600052603260045260246000fd5b9060005260206000200160006101000a81549073ffffffffffffffffffffffffffffffffffffffff021916905561030c565b808061030490610379565b9150506101e8565b50565b61031881610363565b82525050565b6103278161036f565b82525050565b6000602082019050610342600083018461030f565b92915050565b600060208201905061035d600083018461031e565b92915050565b60008115159050919050565b6000819050919050565b60006103848261036f565b91507fffffffffffffffffffffffffffffffffffffffffffffffffffffffffffffffff8214156103b7576103b66103c2565b5b600182019050919050565b7f4e487b7100000000000000000000000000000000000000000000000000000000600052601160045260246000fdfea26469706673582212200f6ad99894fe8f1cf1a10a1392d80e967130e32e295f08c905086fa1cb572d8664736f6c63430008000033",
  "linkReferences": {},
  "deployedLinkReferences": {}
}