{
  "_format": "hh-sol-artifact-1",
  "contractName": "Mapping",
  "sourceName": "contracts/mapping.sol",
  "abi": [
    {
      "inputs": [],
      "name": "addVoter",
      "outputs": [],
      "stateMutability": "nonpayable",
      "type": "function"
    },
    {
      "inputs": [],
      "name": "didIRegister",
      "outputs": [
        {
          "internalType": "bool",
          "name": "",
          "type": "bool"
        }
      ],
      "stateMutability": "view",
      "type": "function"
    },
    {
      "inputs": [],
      "name": "getTotalVoters",
      "outputs": [
        {
          "internalType": "uint256",
          "name": "",
          "type": "uint256"
        }
      ],
      "stateMutability": "view",
      "type": "function"
    },
    {
      "inputs": [],
      "name": "removeRegistration",
      "outputs": [],
      "stateMutability": "nonpayable",
      "type": "function"
    }
  ],
  "bytecode": "0x60806040526000805534801561001457600080fd5b5061037b806100246000396000f3fe608060405234801561001057600080fd5b506004361061004c5760003560e01c80635f9bb8e3146100515780636396d9941461005b578063793cf218146100795780639c04decf14610097575b600080fd5b6100596100a1565b005b610063610111565b6040516100709190610257565b60405180910390f35b610081610165565b60405161008e9190610272565b60405180910390f35b61009f61016e565b005b60018060003373ffffffffffffffffffffffffffffffffffffffff1673ffffffffffffffffffffffffffffffffffffffff16815260200190815260200160002060006101000a81548160ff02191690831515021790555060008081548092919061010a906102cd565b9190505550565b6000600160003373ffffffffffffffffffffffffffffffffffffffff1673ffffffffffffffffffffffffffffffffffffffff16815260200190815260200160002060009054906101000a900460ff16905090565b60008054905090565b60011515600160003373ffffffffffffffffffffffffffffffffffffffff1673ffffffffffffffffffffffffffffffffffffffff16815260200190815260200160002060009054906101000a900460ff1615151415610237576000600160003373ffffffffffffffffffffffffffffffffffffffff1673ffffffffffffffffffffffffffffffffffffffff16815260200190815260200160002060006101000a81548160ff021916908315150217905550600080815480929190610231906102a3565b91905055505b565b6102428161028d565b82525050565b61025181610299565b82525050565b600060208201905061026c6000830184610239565b92915050565b60006020820190506102876000830184610248565b92915050565b60008115159050919050565b6000819050919050565b60006102ae82610299565b915060008214156102c2576102c1610316565b5b600182039050919050565b60006102d882610299565b91507fffffffffffffffffffffffffffffffffffffffffffffffffffffffffffffffff82141561030b5761030a610316565b5b600182019050919050565b7f4e487b7100000000000000000000000000000000000000000000000000000000600052601160045260246000fdfea2646970667358221220405a03328cb5c71d6f26a07d42b7f33bea9ad916d800f4523e40104dd56ed4a064736f6c63430008000033",
  "linkReferences": {},
  "deployedLinkReferences": {}
}